01000001JOSE DA SILVA                 10000000099
02000002ANA MARIA SOUZA               20000000099
01000003MARCOS FERREIRA               30000000099
02000004CARLA SOUSA                   40000000099
01000005PEDRO RODRIGUES               50000000099
02000006MARIA LIMA                    60000000099
01000007CARLOS OLIVEIRA               70000000099
02000008ANTONIA GOMES                 80000000099
01000009LUCAS FONSECA                 90000000099
02000010FABIO SANTOS                  11000000099
01000011JOANA RODRIGUES               12000000099
02000012MARCIO LOPES                  13000000099
01000013FERNANDA ALVES                14000000099
02000014MARIO CUNHA                   15000000099
01000015JULIA FERREIRA                16000000099
02000016ANDRE LIMA                    17000000099
01000017FERNANDO RODRIGUES            18000000099
02000018MARIA SANTOS                  19000000099
01000019GABRIELA SOUZA                11100000099
02000020RICARDO ALVES                 11200000099
01000021LUIZA COSTA                   11300000099
01000022PAULO GOMES                   11400000099
02000023BRUNO OLIVEIRA                11500000099
01000024ISABELA FERREIRA              11600000099
02000025RAFAEL SOUSA                  11700000099
01000026VITORIA SILVA                 11800000099
02000027LUCAS OLIVEIRA                11900000099
01000028ANA BEATRIZ ALVES             12000000099
02000029THIAGO RIBEIRO                16400000099
01000030CAROLINA RODRIGUES            17540000099
01000031MARIA APARECIDA               74380732987
02000032ANTONIO CARLOS                73495186919
01000033JOAO DA SILVA                 21473135042
02000034ANA LUCIA                     23888001798
01000035CARLOS EDUARDO                44620402311
02000036MARCOS AURELIO                79721815851
01000037LUCAS SANTOS                  16633219731
02000038GABRIEL OLIVEIRA              86805538274
01000039PEDRO FERREIRA                59601355347
02000040FELIPE RIBEIRO                71612419607
01000041LUIZA GOMES                   54814180463
02000042RAFAEL PEREIRA                39123416869
01000043MARIA CLARA                   96283755590
02000044ANA BEATRIZ                   43933585828
01000045GABRIEL SOUSA                 40126652231
02000046PEDRO SANTANA                 53904221036
01000047FERNANDO COSTA                29028566790
02000048MARIA HELENA                  56469979280
01000049JOSE GONCALVES                42505849787
02000050ISABELA RODRIGUES             29299858305
01000051LUIZ FERNANDO                 47890017350
02000052ANA LUIZA                     38301070390
01000053GUSTAVO RIBEIRO               68707625260
02000054MARCIO LIMA                   19007020504
01000055FERNANDA SANTOS               89093812960
02000056PEDRO SILVA                   24079908105
01000057LUCIA MARIA                   77588584643
02000058CARLOS ROBERTO                90532081268
01000059ANA CAROLINA                  71075790114
02000060VITORIA PEREIRA               30222271713
01000061PEDRO DA SILVA                57971853645
02000062LUCAS FERREIRA                29485267551
01000063GABRIELA OLIVEIRA             89681218673
02000064MARIA LIMA                    35695565731
01000065LUCAS RODRIGUES               94053976361
02000066ANA BEATRIZ SOUZA             61869772939
01000067RAFAELA SILVA                 37451358329
02000068PEDRO PEREIRA                 35951299358
01000069CARLOS ALVES                  63144936350
02000070FERNANDA RODRIGUES            20595938230
01000071JULIA SANTANA                 16755737703
02000072MARCOS COSTA                  50886208618
01000073ANA CAROLINA SOUSA            97083405259
02000074PEDRO GOMES                   42932601177
01000075LUCAS OLIVEIRA                66689458260
02000076JULIA FERREIRA                43933535051
01000077MARCOS RODRIGUES              25906879435
02000078RAFAEL COSTA                  41606274597
01000079CARLA SOUZA                   54795581222
02000080LUCAS LIMA                    31108413992
01000081FERNANDA ALVES                49997878467
02000082PEDRO ARAUJO                  95341576739
01000083GABRIELA FERREIRA             13592397921
02000084RAFAELA COSTA                 54328798666
01000085MARCOS AURELIO                89375408168
02000086ANA LUIZA SILVA               59928039787
01000087PEDRO FERNANDES               19845208264
02000088ISABELA SOUSA                 61315139033
01000089LUIZ FERNANDO                 79493684141
02000090ANA PEREIRA                   47819127404
01000091GUSTAVO RIBEIRO               73829976966
02000092MARCIO LOPES                  95110941084
01000093LUCAS OLIVEIRA                16544724839
02000094MARCIA SOUZA                  33487069839
01000095PEDRO ALVES                   32839402628
02000096ANA BEATRIZ COSTA             12620286111
01000097LUCAS PEREIRA                 39996268262
02000098RAFAELA GOMES                 65863475936
01000099CARLOS RODRIGUES              42535863799
02000100FERNANDA LIMA                 42308980177
01000101JULIA SANTOS                  17342486404
02000102MARCOS RIBEIRO                52774038192
01000103ANA CAROLINA OLIVEIRA         26161302095
01000104MARIA SOUSA                   45051805991
02000105PEDRO GOMES                   12622659624
01000106RAFAEL FERREIRA               61123395628
02000107GABRIELA COSTA                13908048456
01000108LUCAS OLIVEIRA                22223205104
02000109JULIA RODRIGUES               99132705913
01000110CARLA SOUZA                   73966378612
02000111PEDRO LIMA                    81430524420
01000112FERNANDA ALVES                68956861407
02000113GABRIEL RIBEIRO               52257921727
01000114LUCAS PEREIRA                 64374814956
02000115ANA BEATRIZ LIMA              49800583650
01000116MARCOS RODRIGUES              37507617834
02000117ISABELA SOUSA                 51224018989
01000118PEDRO FERREIRA                70076493605
02000119LUCAS ARAUJO                  71597065623
01000120RAFAELA RODRIGUES             80992684016
02000121JULIA FERNANDES               93061967914
01000122MARCOS PEREIRA                86569892437
02000123ANA CAROLINA COSTA            30256712624
01000124LUIZ FERNANDO                 46226447275
02000125GUSTAVO RODRIGUES             18714360423
01000126CARLOS SOUSA                  67026894012
02000127FERNANDA LIMA                 23842730189
01000128PEDRO OLIVEIRA                90773546795
02000129MARCIA ALVES                  71672070613
01000130LUCAS RIBEIRO                 18017134300
02000131RAFAELA SILVA                 50917534649
01000132JULIA PEREIRA                 74518688934
02000133MARCOS GOMES                  26234827420
01000134ANA BEATRIZ OLIVEIRA          54835763260
02000135PEDRO COSTA                   75989398995
01000136LUCAS ARAUJO                  89278549111
02000137CARLA RODRIGUES               36100015857
01000138FERNANDA FERREIRA             18292447197
02000139GABRIELA GOMES                74570719683
01000140PEDRO RODRIGUES               45008906454
02000141RAFAEL LIMA                   29413113828
01000142LUCAS ALVES                   18375612675
02000143JULIA SOUSA                   28258069189
01000144MARCOS FERNANDES              53017021945
02000145ANA CAROLINA RODRIGUES        78298658113
01000146RAFAEL PEREIRA                88097893416
02000147LUCAS RIBEIRO                 48082104025
01000148CARLA SOUZA                   72190262128